{
  "_format": "hh-sol-artifact-1",
  "contractName": "HyperMove",
  "sourceName": "contracts/HToken.sol",
  "abi": [
    {
      "anonymous": false,
      "inputs": [
        {
          "indexed": true,
          "internalType": "address",
          "name": "owner",
          "type": "address"
        },
        {
          "indexed": true,
          "internalType": "address",
          "name": "spender",
          "type": "address"
        },
        {
          "indexed": false,
          "internalType": "uint256",
          "name": "value",
          "type": "uint256"
        }
      ],
      "name": "Approval",
      "type": "event"
    },
    {
      "anonymous": false,
      "inputs": [
        {
          "indexed": true,
          "internalType": "address",
          "name": "previousOwner",
          "type": "address"
        },
        {
          "indexed": true,
          "internalType": "address",
          "name": "newOwner",
          "type": "address"
        }
      ],
      "name": "OwnershipTransferred",
      "type": "event"
    },
    {
      "anonymous": false,
      "inputs": [
        {
          "indexed": true,
          "internalType": "address",
          "name": "from",
          "type": "address"
        },
        {
          "indexed": true,
          "internalType": "address",
          "name": "to",
          "type": "address"
        },
        {
          "indexed": false,
          "internalType": "uint256",
          "name": "value",
          "type": "uint256"
        }
      ],
      "name": "Transfer",
      "type": "event"
    },
    {
      "inputs": [
        {
          "internalType": "address",
          "name": "owner",
          "type": "address"
        },
        {
          "internalType": "address",
          "name": "spender",
          "type": "address"
        }
      ],
      "name": "allowance",
      "outputs": [
        {
          "internalType": "uint256",
          "name": "",
          "type": "uint256"
        }
      ],
      "stateMutability": "view",
      "type": "function"
    },
    {
      "inputs": [
        {
          "internalType": "address",
          "name": "spender",
          "type": "address"
        },
        {
          "internalType": "uint256",
          "name": "amount",
          "type": "uint256"
        }
      ],
      "name": "approve",
      "outputs": [
        {
          "internalType": "bool",
          "name": "",
          "type": "bool"
        }
      ],
      "stateMutability": "nonpayable",
      "type": "function"
    },
    {
      "inputs": [
        {
          "internalType": "address",
          "name": "account",
          "type": "address"
        }
      ],
      "name": "balanceOf",
      "outputs": [
        {
          "internalType": "uint256",
          "name": "",
          "type": "uint256"
        }
      ],
      "stateMutability": "view",
      "type": "function"
    },
    {
      "inputs": [],
      "name": "decimals",
      "outputs": [
        {
          "internalType": "uint8",
          "name": "",
          "type": "uint8"
        }
      ],
      "stateMutability": "view",
      "type": "function"
    },
    {
      "inputs": [
        {
          "internalType": "address",
          "name": "spender",
          "type": "address"
        },
        {
          "internalType": "uint256",
          "name": "subtractedValue",
          "type": "uint256"
        }
      ],
      "name": "decreaseAllowance",
      "outputs": [
        {
          "internalType": "bool",
          "name": "",
          "type": "bool"
        }
      ],
      "stateMutability": "nonpayable",
      "type": "function"
    },
    {
      "inputs": [
        {
          "internalType": "address",
          "name": "spender",
          "type": "address"
        },
        {
          "internalType": "uint256",
          "name": "addedValue",
          "type": "uint256"
        }
      ],
      "name": "increaseAllowance",
      "outputs": [
        {
          "internalType": "bool",
          "name": "",
          "type": "bool"
        }
      ],
      "stateMutability": "nonpayable",
      "type": "function"
    },
    {
      "inputs": [],
      "name": "initialize",
      "outputs": [],
      "stateMutability": "nonpayable",
      "type": "function"
    },
    {
      "inputs": [
        {
          "internalType": "address",
          "name": "minterAddress",
          "type": "address"
        },
        {
          "internalType": "uint256",
          "name": "amount",
          "type": "uint256"
        }
      ],
      "name": "mint",
      "outputs": [],
      "stateMutability": "nonpayable",
      "type": "function"
    },
    {
      "inputs": [],
      "name": "name",
      "outputs": [
        {
          "internalType": "string",
          "name": "",
          "type": "string"
        }
      ],
      "stateMutability": "view",
      "type": "function"
    },
    {
      "inputs": [],
      "name": "owner",
      "outputs": [
        {
          "internalType": "address",
          "name": "",
          "type": "address"
        }
      ],
      "stateMutability": "view",
      "type": "function"
    },
    {
      "inputs": [],
      "name": "renounceOwnership",
      "outputs": [],
      "stateMutability": "nonpayable",
      "type": "function"
    },
    {
      "inputs": [],
      "name": "symbol",
      "outputs": [
        {
          "internalType": "string",
          "name": "",
          "type": "string"
        }
      ],
      "stateMutability": "view",
      "type": "function"
    },
    {
      "inputs": [],
      "name": "totalSupply",
      "outputs": [
        {
          "internalType": "uint256",
          "name": "",
          "type": "uint256"
        }
      ],
      "stateMutability": "view",
      "type": "function"
    },
    {
      "inputs": [
        {
          "internalType": "address",
          "name": "to",
          "type": "address"
        },
        {
          "internalType": "uint256",
          "name": "amount",
          "type": "uint256"
        }
      ],
      "name": "transfer",
      "outputs": [
        {
          "internalType": "bool",
          "name": "",
          "type": "bool"
        }
      ],
      "stateMutability": "nonpayable",
      "type": "function"
    },
    {
      "inputs": [
        {
          "internalType": "address",
          "name": "from",
          "type": "address"
        },
        {
          "internalType": "address",
          "name": "to",
          "type": "address"
        },
        {
          "internalType": "uint256",
          "name": "amount",
          "type": "uint256"
        }
      ],
      "name": "transferFrom",
      "outputs": [
        {
          "internalType": "bool",
          "name": "",
          "type": "bool"
        }
      ],
      "stateMutability": "nonpayable",
      "type": "function"
    },
    {
      "inputs": [
        {
          "internalType": "address",
          "name": "newOwner",
          "type": "address"
        }
      ],
      "name": "transferOwnership",
      "outputs": [],
      "stateMutability": "nonpayable",
      "type": "function"
    }
  ],
  "bytecode": "0x608060405234801561001057600080fd5b50610eb5806100206000396000f3fe608060405234801561001057600080fd5b50600436106101005760003560e01c8063715018a611610097578063a457c2d711610066578063a457c2d7146101e8578063a9059cbb146101fb578063dd62ed3e1461020e578063f2fde38b1461024757610100565b8063715018a6146101b55780638129fc1c146101bd5780638da5cb5b146101c557806395d89b41146101e057610100565b8063313ce567116100d3578063313ce5671461016b578063395093511461017a57806340c10f191461018d57806370a08231146101a257610100565b806306fdde0314610105578063095ea7b31461012357806318160ddd1461014657806323b872dd14610158575b600080fd5b61010d61025a565b60405161011a9190610d4d565b60405180910390f35b610136610131366004610d24565b6102ec565b604051901515815260200161011a565b6035545b60405190815260200161011a565b610136610166366004610ce9565b610304565b6040516012815260200161011a565b610136610188366004610d24565b610328565b6101a061019b366004610d24565b610367565b005b61014a6101b0366004610c96565b6103a8565b6101a06103c7565b6101a06103fd565b6065546040516001600160a01b03909116815260200161011a565b61010d610506565b6101366101f6366004610d24565b610515565b610136610209366004610d24565b6105a7565b61014a61021c366004610cb7565b6001600160a01b03918216600090815260346020908152604080832093909416825291909152205490565b6101a0610255366004610c96565b6105b5565b60606036805461026990610e44565b80601f016020809104026020016040519081016040528092919081815260200182805461029590610e44565b80156102e25780601f106102b7576101008083540402835291602001916102e2565b820191906000526020600020905b8154815290600101906020018083116102c557829003601f168201915b5050505050905090565b6000336102fa81858561064d565b5060019392505050565b600033610312858285610771565b61031d858585610803565b506001949350505050565b3360008181526034602090815260408083206001600160a01b03871684529091528120549091906102fa9082908690610362908790610e20565b61064d565b6065546001600160a01b0316331461039a5760405162461bcd60e51b815260040161039190610da0565b60405180910390fd5b6103a482826109d1565b5050565b6001600160a01b0381166000908152603360205260409020545b919050565b6065546001600160a01b031633146103f15760405162461bcd60e51b815260040161039190610da0565b6103fb6000610ab1565b565b600054610100900460ff166104185760005460ff161561041c565b303b155b61047f5760405162461bcd60e51b815260206004820152602e60248201527f496e697469616c697a61626c653a20636f6e747261637420697320616c72656160448201526d191e481a5b9a5d1a585b1a5e995960921b6064820152608401610391565b600054610100900460ff161580156104a1576000805461ffff19166101011790555b6104e96040518060400160405280600981526020016848797065724d6f766560b81b81525060405180604001604052806005815260200164484d6f766560d81b815250610b03565b6104f1610b34565b8015610503576000805461ff00191690555b50565b60606037805461026990610e44565b3360008181526034602090815260408083206001600160a01b03871684529091528120549091908381101561059a5760405162461bcd60e51b815260206004820152602560248201527f45524332303a2064656372656173656420616c6c6f77616e63652062656c6f77604482015264207a65726f60d81b6064820152608401610391565b61031d828686840361064d565b6000336102fa818585610803565b6065546001600160a01b031633146105df5760405162461bcd60e51b815260040161039190610da0565b6001600160a01b0381166106445760405162461bcd60e51b815260206004820152602660248201527f4f776e61626c653a206e6577206f776e657220697320746865207a65726f206160448201526564647265737360d01b6064820152608401610391565b61050381610ab1565b6001600160a01b0383166106af5760405162461bcd60e51b8152602060048201526024808201527f45524332303a20617070726f76652066726f6d20746865207a65726f206164646044820152637265737360e01b6064820152608401610391565b6001600160a01b0382166107105760405162461bcd60e51b815260206004820152602260248201527f45524332303a20617070726f766520746f20746865207a65726f206164647265604482015261737360f01b6064820152608401610391565b6001600160a01b0383811660008181526034602090815260408083209487168084529482529182902085905590518481527f8c5be1e5ebec7d5bd14f71427d1e84f3dd0314c0f7b2291e5b200ac8c7c3b925910160405180910390a3505050565b6001600160a01b0383811660009081526034602090815260408083209386168352929052205460001981146107fd57818110156107f05760405162461bcd60e51b815260206004820152601d60248201527f45524332303a20696e73756666696369656e7420616c6c6f77616e63650000006044820152606401610391565b6107fd848484840361064d565b50505050565b6001600160a01b0383166108675760405162461bcd60e51b815260206004820152602560248201527f45524332303a207472616e736665722066726f6d20746865207a65726f206164604482015264647265737360d81b6064820152608401610391565b6001600160a01b0382166108c95760405162461bcd60e51b815260206004820152602360248201527f45524332303a207472616e7366657220746f20746865207a65726f206164647260448201526265737360e81b6064820152608401610391565b6001600160a01b038316600090815260336020526040902054818110156109415760405162461bcd60e51b815260206004820152602660248201527f45524332303a207472616e7366657220616d6f756e7420657863656564732062604482015265616c616e636560d01b6064820152608401610391565b6001600160a01b03808516600090815260336020526040808220858503905591851681529081208054849290610978908490610e20565b92505081905550826001600160a01b0316846001600160a01b03167fddf252ad1be2c89b69c2b068fc378daa952ba7f163c4a11628f55a4df523b3ef846040516109c491815260200190565b60405180910390a36107fd565b6001600160a01b038216610a275760405162461bcd60e51b815260206004820152601f60248201527f45524332303a206d696e7420746f20746865207a65726f2061646472657373006044820152606401610391565b8060356000828254610a399190610e20565b90915550506001600160a01b03821660009081526033602052604081208054839290610a66908490610e20565b90915550506040518181526001600160a01b038316906000907fddf252ad1be2c89b69c2b068fc378daa952ba7f163c4a11628f55a4df523b3ef9060200160405180910390a36103a4565b606580546001600160a01b038381166001600160a01b0319831681179093556040519116919082907f8be0079c531659141344cd1fd0a4f28419497f9722a3daafe3b4186f6b6457e090600090a35050565b600054610100900460ff16610b2a5760405162461bcd60e51b815260040161039190610dd5565b6103a48282610b68565b600054610100900460ff16610b5b5760405162461bcd60e51b815260040161039190610dd5565b6103fb610bb6565b505050565b600054610100900460ff16610b8f5760405162461bcd60e51b815260040161039190610dd5565b8151610ba2906036906020850190610be6565b508051610b63906037906020840190610be6565b600054610100900460ff16610bdd5760405162461bcd60e51b815260040161039190610dd5565b6103fb33610ab1565b828054610bf290610e44565b90600052602060002090601f016020900481019282610c145760008555610c5a565b82601f10610c2d57805160ff1916838001178555610c5a565b82800160010185558215610c5a579182015b82811115610c5a578251825591602001919060010190610c3f565b50610c66929150610c6a565b5090565b5b80821115610c665760008155600101610c6b565b80356001600160a01b03811681146103c257600080fd5b600060208284031215610ca7578081fd5b610cb082610c7f565b9392505050565b60008060408385031215610cc9578081fd5b610cd283610c7f565b9150610ce060208401610c7f565b90509250929050565b600080600060608486031215610cfd578081fd5b610d0684610c7f565b9250610d1460208501610c7f565b9150604084013590509250925092565b60008060408385031215610d36578182fd5b610d3f83610c7f565b946020939093013593505050565b6000602080835283518082850152825b81811015610d7957858101830151858201604001528201610d5d565b81811115610d8a5783604083870101525b50601f01601f1916929092016040019392505050565b6020808252818101527f4f776e61626c653a2063616c6c6572206973206e6f7420746865206f776e6572604082015260600190565b6020808252602b908201527f496e697469616c697a61626c653a20636f6e7472616374206973206e6f74206960408201526a6e697469616c697a696e6760a81b606082015260800190565b60008219821115610e3f57634e487b7160e01b81526011600452602481fd5b500190565b600181811c90821680610e5857607f821691505b60208210811415610e7957634e487b7160e01b600052602260045260246000fd5b5091905056fea264697066735822122052d23752ea09ac7cd567c7df63c98bb0953dfd171fd5654364ed1f2cfd6b73a664736f6c63430008030033",
  "linkReferences": {},
  "deployedLinkReferences": {}
}